{
  "_format": "hh-sol-artifact-1",
  "contractName": "PrivaBidDutch",
  "sourceName": "contracts/PrivaBidDutch.sol",
  "abi": [
    {
      "inputs": [
        {
          "internalType": "uint64",
          "name": "_startPrice",
          "type": "uint64"
        },
        {
          "internalType": "uint64",
          "name": "_floorPrice",
          "type": "uint64"
        },
        {
          "internalType": "uint64",
          "name": "_decrementAmount",
          "type": "uint64"
        },
        {
          "internalType": "uint256",
          "name": "_decrementInterval",
          "type": "uint256"
        }
      ],
      "stateMutability": "nonpayable",
      "type": "constructor"
    },
    {
      "inputs": [],
      "name": "AlreadyRevealed",
      "type": "error"
    },
    {
      "inputs": [],
      "name": "AuctionAlreadyClosed",
      "type": "error"
    },
    {
      "inputs": [],
      "name": "AuctionNotClosed",
      "type": "error"
    },
    {
      "inputs": [],
      "name": "InvalidFloorPrice",
      "type": "error"
    },
    {
      "inputs": [],
      "name": "NotAuctioneer",
      "type": "error"
    },
    {
      "inputs": [
        {
          "internalType": "int32",
          "name": "value",
          "type": "int32"
        }
      ],
      "name": "SecurityZoneOutOfBounds",
      "type": "error"
    },
    {
      "inputs": [],
      "name": "ThresholdAlreadySet",
      "type": "error"
    },
    {
      "inputs": [],
      "name": "ThresholdBelowFloor",
      "type": "error"
    },
    {
      "inputs": [],
      "name": "UnknownBidder",
      "type": "error"
    },
    {
      "inputs": [],
      "name": "WrongModeFunction",
      "type": "error"
    },
    {
      "inputs": [],
      "name": "ZeroIntervalBlocks",
      "type": "error"
    },
    {
      "inputs": [],
      "name": "ZeroStartPrice",
      "type": "error"
    },
    {
      "anonymous": false,
      "inputs": [
        {
          "indexed": false,
          "internalType": "uint256",
          "name": "timestamp",
          "type": "uint256"
        }
      ],
      "name": "AuctionClosed",
      "type": "event"
    },
    {
      "anonymous": false,
      "inputs": [
        {
          "indexed": true,
          "internalType": "address",
          "name": "auctioneer",
          "type": "address"
        },
        {
          "indexed": false,
          "internalType": "uint64",
          "name": "startPrice",
          "type": "uint64"
        },
        {
          "indexed": false,
          "internalType": "uint64",
          "name": "floorPrice",
          "type": "uint64"
        }
      ],
      "name": "AuctionCreated",
      "type": "event"
    },
    {
      "anonymous": false,
      "inputs": [
        {
          "indexed": true,
          "internalType": "address",
          "name": "bidder",
          "type": "address"
        },
        {
          "indexed": false,
          "internalType": "uint64",
          "name": "currentPrice",
          "type": "uint64"
        },
        {
          "indexed": false,
          "internalType": "uint256",
          "name": "timestamp",
          "type": "uint256"
        }
      ],
      "name": "MatchChecked",
      "type": "event"
    },
    {
      "anonymous": false,
      "inputs": [
        {
          "indexed": true,
          "internalType": "address",
          "name": "bidder",
          "type": "address"
        },
        {
          "indexed": false,
          "internalType": "uint256",
          "name": "timestamp",
          "type": "uint256"
        }
      ],
      "name": "ThresholdSet",
      "type": "event"
    },
    {
      "anonymous": false,
      "inputs": [
        {
          "indexed": true,
          "internalType": "address",
          "name": "winner",
          "type": "address"
        },
        {
          "indexed": false,
          "internalType": "uint64",
          "name": "amount",
          "type": "uint64"
        },
        {
          "indexed": false,
          "internalType": "uint256",
          "name": "timestamp",
          "type": "uint256"
        }
      ],
      "name": "WinnerRevealed",
      "type": "event"
    },
    {
      "inputs": [],
      "name": "auctionClosed",
      "outputs": [
        {
          "internalType": "bool",
          "name": "",
          "type": "bool"
        }
      ],
      "stateMutability": "view",
      "type": "function"
    },
    {
      "inputs": [],
      "name": "auctioneer",
      "outputs": [
        {
          "internalType": "address",
          "name": "",
          "type": "address"
        }
      ],
      "stateMutability": "view",
      "type": "function"
    },
    {
      "inputs": [
        {
          "internalType": "uint64",
          "name": "",
          "type": "uint64"
        }
      ],
      "name": "bid",
      "outputs": [],
      "stateMutability": "pure",
      "type": "function"
    },
    {
      "inputs": [
        {
          "internalType": "uint256",
          "name": "",
          "type": "uint256"
        }
      ],
      "name": "bidderList",
      "outputs": [
        {
          "internalType": "address",
          "name": "",
          "type": "address"
        }
      ],
      "stateMutability": "view",
      "type": "function"
    },
    {
      "inputs": [
        {
          "internalType": "address",
          "name": "bidder",
          "type": "address"
        }
      ],
      "name": "checkAndMatch",
      "outputs": [],
      "stateMutability": "nonpayable",
      "type": "function"
    },
    {
      "inputs": [],
      "name": "closeBidding",
      "outputs": [],
      "stateMutability": "nonpayable",
      "type": "function"
    },
    {
      "inputs": [],
      "name": "decrementAmount",
      "outputs": [
        {
          "internalType": "uint64",
          "name": "",
          "type": "uint64"
        }
      ],
      "stateMutability": "view",
      "type": "function"
    },
    {
      "inputs": [],
      "name": "decrementInterval",
      "outputs": [
        {
          "internalType": "uint256",
          "name": "",
          "type": "uint256"
        }
      ],
      "stateMutability": "view",
      "type": "function"
    },
    {
      "inputs": [],
      "name": "floorPrice",
      "outputs": [
        {
          "internalType": "uint64",
          "name": "",
          "type": "uint64"
        }
      ],
      "stateMutability": "view",
      "type": "function"
    },
    {
      "inputs": [],
      "name": "getCurrentPrice",
      "outputs": [
        {
          "internalType": "uint64",
          "name": "",
          "type": "uint64"
        }
      ],
      "stateMutability": "view",
      "type": "function"
    },
    {
      "inputs": [
        {
          "internalType": "address",
          "name": "bidder",
          "type": "address"
        }
      ],
      "name": "getDutchThresholdHandle",
      "outputs": [
        {
          "internalType": "euint64",
          "name": "",
          "type": "bytes32"
        }
      ],
      "stateMutability": "view",
      "type": "function"
    },
    {
      "inputs": [
        {
          "internalType": "address",
          "name": "bidder",
          "type": "address"
        }
      ],
      "name": "getMatchResultHandle",
      "outputs": [
        {
          "internalType": "ebool",
          "name": "",
          "type": "bytes32"
        }
      ],
      "stateMutability": "view",
      "type": "function"
    },
    {
      "inputs": [],
      "name": "getParticipantCount",
      "outputs": [
        {
          "internalType": "uint256",
          "name": "",
          "type": "uint256"
        }
      ],
      "stateMutability": "view",
      "type": "function"
    },
    {
      "inputs": [
        {
          "internalType": "address",
          "name": "",
          "type": "address"
        }
      ],
      "name": "hasThreshold",
      "outputs": [
        {
          "internalType": "bool",
          "name": "",
          "type": "bool"
        }
      ],
      "stateMutability": "view",
      "type": "function"
    },
    {
      "inputs": [
        {
          "internalType": "address",
          "name": "winner",
          "type": "address"
        },
        {
          "internalType": "euint64",
          "name": "thresholdCtHash",
          "type": "bytes32"
        },
        {
          "internalType": "uint64",
          "name": "thresholdPlaintext",
          "type": "uint64"
        },
        {
          "internalType": "bytes",
          "name": "thresholdSignature",
          "type": "bytes"
        }
      ],
      "name": "revealWinner",
      "outputs": [],
      "stateMutability": "nonpayable",
      "type": "function"
    },
    {
      "inputs": [
        {
          "internalType": "uint64",
          "name": "threshold",
          "type": "uint64"
        }
      ],
      "name": "setThreshold",
      "outputs": [],
      "stateMutability": "nonpayable",
      "type": "function"
    },
    {
      "inputs": [],
      "name": "startBlock",
      "outputs": [
        {
          "internalType": "uint256",
          "name": "",
          "type": "uint256"
        }
      ],
      "stateMutability": "view",
      "type": "function"
    },
    {
      "inputs": [],
      "name": "startPrice",
      "outputs": [
        {
          "internalType": "uint64",
          "name": "",
          "type": "uint64"
        }
      ],
      "stateMutability": "view",
      "type": "function"
    },
    {
      "inputs": [],
      "name": "winnerRevealed",
      "outputs": [
        {
          "internalType": "bool",
          "name": "",
          "type": "bool"
        }
      ],
      "stateMutability": "view",
      "type": "function"
    },
    {
      "inputs": [],
      "name": "winningBid",
      "outputs": [
        {
          "internalType": "uint64",
          "name": "",
          "type": "uint64"
        }
      ],
      "stateMutability": "view",
      "type": "function"
    },
    {
      "inputs": [],
      "name": "winningBidder",
      "outputs": [
        {
          "internalType": "address",
          "name": "",
          "type": "address"
        }
      ],
      "stateMutability": "view",
      "type": "function"
    }
  ],
  "bytecode": "0x60a060405234801561000f575f80fd5b506040516111f43803806111f483398101604081905261002e91610173565b836001600160401b03165f03610057576040516304df952d60e51b815260040160405180910390fd5b6001600160401b038316158061007e5750836001600160401b0316836001600160401b0316115b1561009c5760405163bd84c8ab60e01b815260040160405180910390fd5b805f036100bc576040516303c0767560e41b815260040160405180910390fd5b3360808190525f80546001600160401b03858116600160801b02600160801b600160c01b03198883166801000000000000000081026001600160801b0319909516938b169384179490941716179092556001849055436002556040805192835260208301919091527f8450f29dbe98244705c519ead87f746e33d1b2e4c1dde09d82f303a64293dc2e910160405180910390a2505050506101bb565b80516001600160401b038116811461016e575f80fd5b919050565b5f805f8060808587031215610186575f80fd5b61018f85610158565b935061019d60208601610158565b92506101ab60408601610158565b6060959095015193969295505050565b60805161101a6101da5f395f81816101fc01526104df015261101a5ff3fe608060405234801561000f575f80fd5b5060043610610132575f3560e01c80638890ed09116100b4578063ad60572911610079578063ad605729146102be578063aeaaa299146102c6578063c261d456146102d3578063d3584e84146102e6578063eb91d37e146102f9578063f1a9af8914610301575f80fd5b80638890ed091461025c57806389a4c874146102765780638cf80438146102895780639363c8121461029c5780639b3e45b4146102b5575f80fd5b806350758bbe116100fa57806350758bbe146101dd5780635df5e639146101ef5780635ec2c7bf146101f75780635fa89712146102365780637b44423314610249575f80fd5b806317c4de35146101365780632cf4063c1461014b57806347d4f1931461018157806348cd4cb1146101b35780634faf46d3146101ca575b5f80fd5b610149610144366004610d6d565b610313565b005b5f5461016490600160801b90046001600160401b031681565b6040516001600160401b0390911681526020015b60405180910390f35b6101a361018f366004610d9c565b60066020525f908152604090205460ff1681565b6040519015158152602001610178565b6101bc60025481565b604051908152602001610178565b6101bc6101d8366004610d9c565b610458565b6003546101a390610100900460ff1681565b6101496104d4565b61021e7f000000000000000000000000000000000000000000000000000000000000000081565b6040516001600160a01b039091168152602001610178565b610149610244366004610db5565b61058a565b610149610257366004610d9c565b6106d1565b60085461021e90600160401b90046001600160a01b031681565b6101bc610284366004610d9c565b6107f9565b600854610164906001600160401b031681565b5f5461016490600160401b90046001600160401b031681565b6101bc60015481565b6007546101bc565b6003546101a39060ff1681565b6101496102e1366004610d6d565b61084c565b61021e6102f4366004610e47565b610865565b61016461088d565b5f54610164906001600160401b031681565b60035460ff161561033757604051633508246160e01b815260040160405180910390fd5b335f9081526006602052604090205460ff161561036757604051631927436d60e21b815260040160405180910390fd5b5f546001600160401b03600160401b9091048116908216101561039d57604051630bdf842360e31b815260040160405180910390fd5b5f6103b0826001600160401b0316610981565b90506103bb81610992565b335f81815260046020908152604080832085905560068252808320805460ff191660019081179091556007805491820181559093527fa66cc928b5edb82af9bd49922954155ab7b0942694bea4ce44661d9a8736c68890920180546001600160a01b0319168417905590514281527ff7e18aa0532694077d6fc7df02e85d86b91ba964f958d1949d45c5776d36eb6e910160405180910390a25050565b6003545f9060ff1661047d5760405163b9adeefd60e01b815260040160405180910390fd5b6001600160a01b0382165f9081526006602052604090205460ff166104b557604051631d1b814f60e01b815260040160405180910390fd5b506001600160a01b0381165f908152600460205260409020545b919050565b336001600160a01b037f0000000000000000000000000000000000000000000000000000000000000000161461051d5760405163092024b760e11b815260040160405180910390fd5b60035460ff161561054157604051633508246160e01b815260040160405180910390fd5b6003805460ff191660011790556040517fac4a907ec29adcc56774b757ecb1e1b4d597374fc9386107d05e2670259df7d3906105809042815260200190565b60405180910390a1565b60035460ff166105ad5760405163b9adeefd60e01b815260040160405180910390fd5b600354610100900460ff16156105d65760405163a89ac15160e01b815260040160405180910390fd5b6001600160a01b0385165f9081526006602052604090205460ff1661060e57604051631d1b814f60e01b815260040160405180910390fd5b61064e848484848080601f0160208091040260200160405190810160405280939291908181526020018383808284375f920191909152506109fb92505050565b600880546001600160a01b038716600160401b81026001600160e01b03199092166001600160401b038716908117929092179092556003805461ff001916610100179055604080519182524260208301527f5a1eef4b0a304d0dd7ea15b6abcfd25de75a0f68da9973d18da74e091f25ecc6910160405180910390a25050505050565b60035460ff16156106f557604051633508246160e01b815260040160405180910390fd5b6001600160a01b0381165f9081526006602052604090205460ff1661072d57604051631d1b814f60e01b815260040160405180910390fd5b5f61073661088d565b90505f61074b826001600160401b0316610981565b905061075681610992565b6001600160a01b0383165f90815260046020526040812054610779908390610a14565b905061078481610992565b6001600160a01b0384165f9081526005602052604090208190556107a781610992565b604080516001600160401b03851681524260208201526001600160a01b038616917feba208a43f4471b30d8f7e5ff7a4f232f0c16be82f5af7942e1055950f84049f910160405180910390a250505050565b6001600160a01b0381165f9081526006602052604081205460ff1661083157604051631d1b814f60e01b815260040160405180910390fd5b506001600160a01b03165f9081526005602052604090205490565b60405163ee4f7a6560e01b815260040160405180910390fd5b60078181548110610874575f80fd5b5f918252602090912001546001600160a01b0316905081565b5f60025443116108a657505f546001600160401b031690565b5f600254436108b59190610e72565b90505f8060109054906101000a90046001600160401b03166001600160401b0316600154836108e49190610e85565b6108ee9190610ea4565b5f805491925090610911906001600160401b03600160401b820481169116610e72565b90508082106109345750505f54600160401b90046001600160401b031692915050565b5f805461094b9084906001600160401b0316610ebb565b90505f8411801561097057505f546001600160401b03600160401b9091048116908216115b15610979575f19015b949350505050565b5f61098c825f610a5c565b92915050565b604051631974142760e21b81526004810182905230602482015273ea30c4b8b44078bbf8a6ef5b9f1ec1626c7848d9906365d0509c906044015f604051808303815f87803b1580156109e2575f80fd5b505af11580156109f4573d5f803e3d5ffd5b5050505050565b610a0f83836001600160401b031683610a6a565b505050565b5f610a1e83610ad7565b610a2e57610a2b5f610981565b92505b610a3782610ad7565b610a4757610a445f610981565b91505b610a55600584846013610ae0565b9392505050565b5f8061097984600585610b81565b604051631868370160e01b815273ea30c4b8b44078bbf8a6ef5b9f1ec1626c7848d990631868370190610aa590869086908690600401610ee2565b5f604051808303815f87803b158015610abc575f80fd5b505af1158015610ace573d5f803e3d5ffd5b50505050505050565b5f81151561098c565b5f73ea30c4b8b44078bbf8a6ef5b9f1ec1626c7848d9631888debd8684610b078888610c26565b604080515f815260208101918290526001600160e01b031960e087901b16909152610b389392919060248101610f5f565b6020604051808303815f875af1158015610b54573d5f803e3d5ffd5b505050506040513d601f19601f82011682018060405250810190610b789190610fb9565b95945050505050565b604080515f8082526020820190925273ea30c4b8b44078bbf8a6ef5b9f1ec1626c7848d990631888debd908590601a90610bc7898960ff16610bc28a610c93565b610ccc565b6040518563ffffffff1660e01b8152600401610be69493929190610f5f565b6020604051808303815f875af1158015610c02573d5f803e3d5ffd5b505050506040513d601f19601f820116820180604052508101906109799190610fb9565b60408051600280825260608083018452925f929190602083019080368337019050509050835f1c815f81518110610c5f57610c5f610fd0565b602002602001018181525050825f1c81600181518110610c8157610c81610fd0565b60209081029190910101529392505050565b5f808260030b1215610cc2576040516311ead17f60e31b8152600383900b600482015260240160405180910390fd5b5063ffffffff1690565b604080516003808252608082019092526060915f919060208201848036833701905050905084815f81518110610d0457610d04610fd0565b6020026020010181815250508381600181518110610d2457610d24610fd0565b6020026020010181815250508281600281518110610d4457610d44610fd0565b6020908102919091010152949350505050565b80356001600160401b03811681146104cf575f80fd5b5f60208284031215610d7d575f80fd5b610a5582610d57565b80356001600160a01b03811681146104cf575f80fd5b5f60208284031215610dac575f80fd5b610a5582610d86565b5f805f805f60808688031215610dc9575f80fd5b610dd286610d86565b945060208601359350610de760408701610d57565b925060608601356001600160401b0380821115610e02575f80fd5b818801915088601f830112610e15575f80fd5b813581811115610e23575f80fd5b896020828501011115610e34575f80fd5b9699959850939650602001949392505050565b5f60208284031215610e57575f80fd5b5035919050565b634e487b7160e01b5f52601160045260245ffd5b8181038181111561098c5761098c610e5e565b5f82610e9f57634e487b7160e01b5f52601260045260245ffd5b500490565b808202811582820484141761098c5761098c610e5e565b6001600160401b03828116828216039080821115610edb57610edb610e5e565b5092915050565b838152826020820152606060408201525f82518060608401528060208501608085015e5f608082850101526080601f19601f830116840101915050949350505050565b5f815180845260208085019450602084015f5b83811015610f5457815187529582019590820190600101610f38565b509495945050505050565b60ff851681525f60208510610f8257634e487b7160e01b5f52602160045260245ffd5b84602083015260806040830152610f9c6080830185610f25565b8281036060840152610fae8185610f25565b979650505050505050565b5f60208284031215610fc9575f80fd5b5051919050565b634e487b7160e01b5f52603260045260245ffdfea2646970667358221220589a1f97ad75f118133e57c0a7babeb98059fcbe4b3289b0e7dd03756cffa11864736f6c63430008190033",
  "linkReferences": {},
  "deployedLinkReferences": {}
}