{
  "_format": "hh-sol-artifact-1",
  "contractName": "PrivaBidVickrey",
  "sourceName": "contracts/PrivaBidVickrey.sol",
  "abi": [
    {
      "inputs": [
        {
          "internalType": "string",
          "name": "_itemName",
          "type": "string"
        },
        {
          "internalType": "string",
          "name": "_itemDescription",
          "type": "string"
        },
        {
          "internalType": "uint64",
          "name": "_reservePrice",
          "type": "uint64"
        },
        {
          "internalType": "uint256",
          "name": "_duration",
          "type": "uint256"
        }
      ],
      "stateMutability": "nonpayable",
      "type": "constructor"
    },
    {
      "inputs": [],
      "name": "AlreadyRevealed",
      "type": "error"
    },
    {
      "inputs": [],
      "name": "AuctionAlreadyClosed",
      "type": "error"
    },
    {
      "inputs": [],
      "name": "AuctionExpired",
      "type": "error"
    },
    {
      "inputs": [],
      "name": "AuctionNotClosed",
      "type": "error"
    },
    {
      "inputs": [],
      "name": "BelowReservePrice",
      "type": "error"
    },
    {
      "inputs": [],
      "name": "EmptyItemName",
      "type": "error"
    },
    {
      "inputs": [],
      "name": "NotAuctioneer",
      "type": "error"
    },
    {
      "inputs": [
        {
          "internalType": "int32",
          "name": "value",
          "type": "int32"
        }
      ],
      "name": "SecurityZoneOutOfBounds",
      "type": "error"
    },
    {
      "inputs": [],
      "name": "WrongModeFunction",
      "type": "error"
    },
    {
      "inputs": [],
      "name": "ZeroDuration",
      "type": "error"
    },
    {
      "inputs": [],
      "name": "ZeroReservePrice",
      "type": "error"
    },
    {
      "anonymous": false,
      "inputs": [
        {
          "indexed": false,
          "internalType": "uint256",
          "name": "timestamp",
          "type": "uint256"
        },
        {
          "indexed": false,
          "internalType": "uint256",
          "name": "finalCount",
          "type": "uint256"
        }
      ],
      "name": "AuctionClosed",
      "type": "event"
    },
    {
      "anonymous": false,
      "inputs": [
        {
          "indexed": true,
          "internalType": "address",
          "name": "auctioneer",
          "type": "address"
        },
        {
          "indexed": false,
          "internalType": "string",
          "name": "itemName",
          "type": "string"
        },
        {
          "indexed": false,
          "internalType": "uint64",
          "name": "reservePrice",
          "type": "uint64"
        },
        {
          "indexed": false,
          "internalType": "uint256",
          "name": "endTime",
          "type": "uint256"
        }
      ],
      "name": "AuctionCreated",
      "type": "event"
    },
    {
      "anonymous": false,
      "inputs": [
        {
          "indexed": true,
          "internalType": "address",
          "name": "bidder",
          "type": "address"
        },
        {
          "indexed": false,
          "internalType": "uint256",
          "name": "timestamp",
          "type": "uint256"
        },
        {
          "indexed": false,
          "internalType": "uint256",
          "name": "totalBidsNow",
          "type": "uint256"
        }
      ],
      "name": "BidPlaced",
      "type": "event"
    },
    {
      "anonymous": false,
      "inputs": [
        {
          "indexed": true,
          "internalType": "address",
          "name": "winner",
          "type": "address"
        },
        {
          "indexed": false,
          "internalType": "uint64",
          "name": "winningBid",
          "type": "uint64"
        },
        {
          "indexed": false,
          "internalType": "uint64",
          "name": "paymentAmount",
          "type": "uint64"
        },
        {
          "indexed": false,
          "internalType": "uint256",
          "name": "timestamp",
          "type": "uint256"
        }
      ],
      "name": "WinnerRevealed",
      "type": "event"
    },
    {
      "inputs": [],
      "name": "auctionClosed",
      "outputs": [
        {
          "internalType": "bool",
          "name": "",
          "type": "bool"
        }
      ],
      "stateMutability": "view",
      "type": "function"
    },
    {
      "inputs": [],
      "name": "auctionEndTime",
      "outputs": [
        {
          "internalType": "uint256",
          "name": "",
          "type": "uint256"
        }
      ],
      "stateMutability": "view",
      "type": "function"
    },
    {
      "inputs": [],
      "name": "auctioneer",
      "outputs": [
        {
          "internalType": "address",
          "name": "",
          "type": "address"
        }
      ],
      "stateMutability": "view",
      "type": "function"
    },
    {
      "inputs": [
        {
          "internalType": "uint64",
          "name": "amount",
          "type": "uint64"
        }
      ],
      "name": "bid",
      "outputs": [],
      "stateMutability": "nonpayable",
      "type": "function"
    },
    {
      "inputs": [
        {
          "internalType": "uint256",
          "name": "",
          "type": "uint256"
        }
      ],
      "name": "bidderList",
      "outputs": [
        {
          "internalType": "address",
          "name": "",
          "type": "address"
        }
      ],
      "stateMutability": "view",
      "type": "function"
    },
    {
      "inputs": [
        {
          "internalType": "address",
          "name": "",
          "type": "address"
        }
      ],
      "name": "checkAndMatch",
      "outputs": [],
      "stateMutability": "pure",
      "type": "function"
    },
    {
      "inputs": [],
      "name": "closeBidding",
      "outputs": [],
      "stateMutability": "nonpayable",
      "type": "function"
    },
    {
      "inputs": [],
      "name": "getHighestBidHandle",
      "outputs": [
        {
          "internalType": "euint64",
          "name": "",
          "type": "bytes32"
        }
      ],
      "stateMutability": "view",
      "type": "function"
    },
    {
      "inputs": [],
      "name": "getHighestBidderHandle",
      "outputs": [
        {
          "internalType": "eaddress",
          "name": "",
          "type": "bytes32"
        }
      ],
      "stateMutability": "view",
      "type": "function"
    },
    {
      "inputs": [],
      "name": "getParticipantCount",
      "outputs": [
        {
          "internalType": "uint256",
          "name": "",
          "type": "uint256"
        }
      ],
      "stateMutability": "view",
      "type": "function"
    },
    {
      "inputs": [],
      "name": "getSecondHighestBidHandle",
      "outputs": [
        {
          "internalType": "euint64",
          "name": "",
          "type": "bytes32"
        }
      ],
      "stateMutability": "view",
      "type": "function"
    },
    {
      "inputs": [
        {
          "internalType": "address",
          "name": "",
          "type": "address"
        }
      ],
      "name": "hasBid",
      "outputs": [
        {
          "internalType": "bool",
          "name": "",
          "type": "bool"
        }
      ],
      "stateMutability": "view",
      "type": "function"
    },
    {
      "inputs": [],
      "name": "itemDescription",
      "outputs": [
        {
          "internalType": "string",
          "name": "",
          "type": "string"
        }
      ],
      "stateMutability": "view",
      "type": "function"
    },
    {
      "inputs": [],
      "name": "itemName",
      "outputs": [
        {
          "internalType": "string",
          "name": "",
          "type": "string"
        }
      ],
      "stateMutability": "view",
      "type": "function"
    },
    {
      "inputs": [],
      "name": "paymentAmount",
      "outputs": [
        {
          "internalType": "uint64",
          "name": "",
          "type": "uint64"
        }
      ],
      "stateMutability": "view",
      "type": "function"
    },
    {
      "inputs": [],
      "name": "reservePrice",
      "outputs": [
        {
          "internalType": "uint64",
          "name": "",
          "type": "uint64"
        }
      ],
      "stateMutability": "view",
      "type": "function"
    },
    {
      "inputs": [
        {
          "internalType": "euint64",
          "name": "bidCtHash",
          "type": "bytes32"
        },
        {
          "internalType": "uint64",
          "name": "bidPlaintext",
          "type": "uint64"
        },
        {
          "internalType": "bytes",
          "name": "bidSignature",
          "type": "bytes"
        },
        {
          "internalType": "euint64",
          "name": "secondBidCtHash",
          "type": "bytes32"
        },
        {
          "internalType": "uint64",
          "name": "secondBidPlaintext",
          "type": "uint64"
        },
        {
          "internalType": "bytes",
          "name": "secondBidSignature",
          "type": "bytes"
        },
        {
          "internalType": "eaddress",
          "name": "bidderCtHash",
          "type": "bytes32"
        },
        {
          "internalType": "address",
          "name": "bidderPlaintext",
          "type": "address"
        },
        {
          "internalType": "bytes",
          "name": "bidderSignature",
          "type": "bytes"
        }
      ],
      "name": "revealWinner",
      "outputs": [],
      "stateMutability": "nonpayable",
      "type": "function"
    },
    {
      "inputs": [
        {
          "internalType": "uint64",
          "name": "",
          "type": "uint64"
        }
      ],
      "name": "setThreshold",
      "outputs": [],
      "stateMutability": "pure",
      "type": "function"
    },
    {
      "inputs": [],
      "name": "timeRemaining",
      "outputs": [
        {
          "internalType": "uint256",
          "name": "",
          "type": "uint256"
        }
      ],
      "stateMutability": "view",
      "type": "function"
    },
    {
      "inputs": [],
      "name": "totalBids",
      "outputs": [
        {
          "internalType": "uint256",
          "name": "",
          "type": "uint256"
        }
      ],
      "stateMutability": "view",
      "type": "function"
    },
    {
      "inputs": [],
      "name": "winnerRevealed",
      "outputs": [
        {
          "internalType": "bool",
          "name": "",
          "type": "bool"
        }
      ],
      "stateMutability": "view",
      "type": "function"
    },
    {
      "inputs": [],
      "name": "winningBid",
      "outputs": [
        {
          "internalType": "uint64",
          "name": "",
          "type": "uint64"
        }
      ],
      "stateMutability": "view",
      "type": "function"
    },
    {
      "inputs": [],
      "name": "winningBidder",
      "outputs": [
        {
          "internalType": "address",
          "name": "",
          "type": "address"
        }
      ],
      "stateMutability": "view",
      "type": "function"
    }
  ],
  "bytecode": "0x60a060405234801561000f575f80fd5b506040516119db3803806119db83398101604081905261002e91610425565b83515f0361004f5760405163030f899b60e21b815260040160405180910390fd5b816001600160401b03165f036100785760405163195a8cfd60e31b815260040160405180910390fd5b805f036100985760405163346ab43760e11b815260040160405180910390fd5b336080525f6100a78582610523565b5060016100b48482610523565b50600280546001600160401b0319166001600160401b0384161790556100da81426105e2565b6003556100e65f610172565b60068190556100f490610183565b6100fd5f610172565b600781905561010b90610183565b6101145f6101ec565b600881905561012290610183565b336001600160a01b03167ffe20c701db6f40bc5f368ce5022e9b630a42fc0b170814483ee827630e171402858460035460405161016193929190610601565b60405180910390a25050505061070d565b5f61017d82826101f7565b92915050565b604051631974142760e21b81526004810182905230602482015273ea30c4b8b44078bbf8a6ef5b9f1ec1626c7848d9906365d0509c906044015f604051808303815f87803b1580156101d3575f80fd5b505af11580156101e5573d5f803e3d5ffd5b5050505050565b5f61017d828261020d565b5f8061020584600585610220565b949350505050565b5f806102056001600160a01b0385166007855b604080515f8082526020820190925273ea30c4b8b44078bbf8a6ef5b9f1ec1626c7848d990631888debd908590601a906102668960ff8a166102618a6102c5565b6102fe565b6040518563ffffffff1660e01b81526004016102859493929190610688565b6020604051808303815f875af11580156102a1573d5f803e3d5ffd5b505050506040513d601f19601f8201168201806040525081019061020591906106e2565b5f808260030b12156102f4576040516311ead17f60e31b8152600383900b600482015260240160405180910390fd5b5063ffffffff1690565b604080516003808252608082019092526060915f919060208201848036833701905050905084815f81518110610336576103366106f9565b6020026020010181815250508381600181518110610356576103566106f9565b6020026020010181815250508281600281518110610376576103766106f9565b6020908102919091010152949350505050565b634e487b7160e01b5f52604160045260245ffd5b5f82601f8301126103ac575f80fd5b81516001600160401b03808211156103c6576103c6610389565b604051601f8301601f19908116603f011681019082821181831017156103ee576103ee610389565b81604052838152866020858801011115610406575f80fd5b8360208701602083015e5f602085830101528094505050505092915050565b5f805f8060808587031215610438575f80fd5b84516001600160401b038082111561044e575f80fd5b61045a8883890161039d565b9550602087015191508082111561046f575f80fd5b61047b8883890161039d565b9450604087015191508082168214610491575f80fd5b506060959095015193969295505050565b600181811c908216806104b657607f821691505b6020821081036104d457634e487b7160e01b5f52602260045260245ffd5b50919050565b601f82111561051e57805f5260205f20601f840160051c810160208510156104ff5750805b601f840160051c820191505b818110156101e5575f815560010161050b565b505050565b81516001600160401b0381111561053c5761053c610389565b6105508161054a84546104a2565b846104da565b602080601f831160018114610583575f841561056c5750858301515b5f19600386901b1c1916600185901b1785556105da565b5f85815260208120601f198616915b828110156105b157888601518255948401946001909101908401610592565b50858210156105ce57878501515f19600388901b60f8161c191681555b505060018460011b0185555b505050505050565b8082018082111561017d57634e487b7160e01b5f52601160045260245ffd5b606081525f84518060608401528060208701608085015e5f60808285018101919091526001600160401b03959095166020840152604083019390935250601f909101601f19160101919050565b5f815180845260208085019450602084015f5b8381101561067d57815187529582019590820190600101610661565b509495945050505050565b60ff851681525f602085106106ab57634e487b7160e01b5f52602160045260245ffd5b846020830152608060408301526106c5608083018561064e565b82810360608401526106d7818561064e565b979650505050505050565b5f602082840312156106f2575f80fd5b5051919050565b634e487b7160e01b5f52603260045260245ffd5b6080516112af61072c5f395f81816101c901526103f001526112af5ff3fe608060405234801561000f575f80fd5b5060043610610148575f3560e01c80638cf80438116100bf578063c261d45611610079578063c261d45614610298578063c35905c6146102ab578063d2639dbf146102c5578063d3584e84146102e7578063db2e1eed146102fa578063e3cfef601461030d575f80fd5b80638cf80438146102355780639bc96f92146102605780639f36522614610268578063ad60572914610270578063aeaaa29914610278578063c1e6faef14610285575f80fd5b80635df5e639116101105780635df5e639146101bc5780635ec2c7bf146101c45780636827d060146102035780637b4442331461020b5780638890ed09146102195780638b0341361461022c575f80fd5b806317c4de351461014c5780631aad0b0e1461016157806340401fea1461017c5780634b449cba1461019157806350758bbe1461019a575b5f80fd5b61015f61015a366004610f51565b610315565b005b61016961032e565b6040519081526020015b60405180910390f35b61018461035a565b6040516101739190610f98565b61016960035481565b6004546101ac90610100900460ff1681565b6040519015158152602001610173565b61015f6103e5565b6101eb7f000000000000000000000000000000000000000000000000000000000000000081565b6040516001600160a01b039091168152602001610173565b6101696104c7565b61015f61015a366004610fc0565b600a546101eb906001600160a01b031681565b61016960055481565b600954610248906001600160401b031681565b6040516001600160401b039091168152602001610173565b6101696104f3565b61018461051f565b600c54610169565b6004546101ac9060ff1681565b61015f61029336600461101d565b61052c565b61015f6102a6366004610f51565b6106ee565b60095461024890600160401b90046001600160401b031681565b6101ac6102d3366004610fc0565b600b6020525f908152604090205460ff1681565b6101eb6102f536600461110e565b6108e6565b600254610248906001600160401b031681565b61016961090e565b60405163ee4f7a6560e01b815260040160405180910390fd5b6004545f9060ff166103535760405163b9adeefd60e01b815260040160405180910390fd5b5060065490565b5f805461036690611125565b80601f016020809104026020016040519081016040528092919081815260200182805461039290611125565b80156103dd5780601f106103b4576101008083540402835291602001916103dd565b820191905f5260205f20905b8154815290600101906020018083116103c057829003601f168201915b505050505081565b336001600160a01b037f0000000000000000000000000000000000000000000000000000000000000000161461042e5760405163092024b760e11b815260040160405180910390fd5b60045460ff161561045257604051633508246160e01b815260040160405180910390fd5b61045d600654610930565b610468600754610930565b610473600854610930565b6004805460ff191660011790556005546040517f4603db6e379bfc34597f7d0b7ed8bc30d6dc6456875942e8abaf2f15e36edc98916104bd91429190918252602082015260400190565b60405180910390a1565b6004545f9060ff166104ec5760405163b9adeefd60e01b815260040160405180910390fd5b5060085490565b6004545f9060ff166105185760405163b9adeefd60e01b815260040160405180910390fd5b5060075490565b6001805461036690611125565b60045460ff1661054f5760405163b9adeefd60e01b815260040160405180910390fd5b600454610100900460ff16156105785760405163a89ac15160e01b815260040160405180910390fd5b6105b88c8c8c8c8080601f0160208091040260200160405190810160405280939291908181526020018383808284375f9201919091525061099492505050565b6105f8888888888080601f0160208091040260200160405190810160405280939291908181526020018383808284375f9201919091525061099492505050565b610638848484848080601f0160208091040260200160405190810160405280939291908181526020018383808284375f920191909152506109ad92505050565b600980546001600160401b038d81166fffffffffffffffffffffffffffffffff199092168217600160401b918b1691820217909255600a80546001600160a01b0319166001600160a01b0387169081179091556004805461010061ff001990911617905560408051928352602083019390935242928201929092527f48e25bd2e9939732d7776ff054343b03677806930a2b71c7950b2b1ab509541a9060600160405180910390a2505050505050505050505050565b60045460ff161561071257604051633508246160e01b815260040160405180910390fd5b600354421061073457604051630129799f60e21b815260040160405180910390fd5b6002546001600160401b03908116908216101561076457604051630f26f57160e31b815260040160405180910390fd5b5f610777826001600160401b03166109c1565b9050610782816109d2565b5f61078f82600654610a10565b905061079a816109d2565b5f6107a783600754610a10565b90506107b2816109d2565b6107cb826006546107c68487600754610a58565b610a58565b60078190556107d9906109d2565b6107e583600654610ab9565b60068190556107f3906109d2565b6108088261080033610afa565b600854610b05565b6008819055610816906109d2565b335f908152600b602052604090205460ff1661088857335f818152600b60205260408120805460ff19166001908117909155600c805491820181559091527fdf6966c971051c3d54ec59162606531493a51404a002842f56009d7e5cf4a8c70180546001600160a01b03191690911790555b60058054905f61089783611171565b909155505060055460405133917fdf8644c0a4c21ed214ce69f395675b3a5fcd1039083daea5058898de40ea3149916108d891428252602082015260400190565b60405180910390a250505050565b600c81815481106108f5575f80fd5b5f918252602090912001546001600160a01b0316905081565b5f600354421061091d57505f90565b4260035461092b9190611189565b905090565b604051631a778f2d60e11b81526004810182905273ea30c4b8b44078bbf8a6ef5b9f1ec1626c7848d9906334ef1e5a906024015b5f604051808303815f87803b15801561097b575f80fd5b505af115801561098d573d5f803e3d5ffd5b5050505050565b6109a883836001600160401b031683610b5e565b505050565b6109a883836001600160a01b031683610b5e565b5f6109cc825f610bcb565b92915050565b604051631974142760e21b81526004810182905230602482015273ea30c4b8b44078bbf8a6ef5b9f1ec1626c7848d9906365d0509c90604401610964565b5f610a1a83610bd9565b610a2a57610a275f6109c1565b92505b610a3382610bd9565b610a4357610a405f6109c1565b91505b610a51600584846015610be2565b9392505050565b5f610a6284610bd9565b610a7257610a6f5f610c83565b93505b610a7b83610bd9565b610a8b57610a885f6109c1565b92505b610a9482610bd9565b610aa457610aa15f6109c1565b91505b610ab16005858585610c8e565b949350505050565b5f610ac383610bd9565b610ad357610ad05f6109c1565b92505b610adc82610bd9565b610aec57610ae95f6109c1565b91505b610a51600584846017610be2565b5f6109cc825f610cb7565b5f610b0f84610bd9565b610b1f57610b1c5f610c83565b93505b610b2883610bd9565b610b3857610b355f610afa565b92505b610b4182610bd9565b610b5157610b4e5f610afa565b91505b610ab16007858585610c8e565b604051631868370160e01b815273ea30c4b8b44078bbf8a6ef5b9f1ec1626c7848d990631868370190610b999086908690869060040161119c565b5f604051808303815f87803b158015610bb0575f80fd5b505af1158015610bc2573d5f803e3d5ffd5b50505050505050565b5f80610ab184600585610cca565b5f8115156109cc565b5f73ea30c4b8b44078bbf8a6ef5b9f1ec1626c7848d9631888debd8684610c098888610d6f565b604080515f815260208101918290526001600160e01b031960e087901b16909152610c3a93929190602481016111f4565b6020604051808303815f875af1158015610c56573d5f803e3d5ffd5b505050506040513d601f19601f82011682018060405250810190610c7a919061124e565b95945050505050565b5f6109cc825f610ddc565b5f73ea30c4b8b44078bbf8a6ef5b9f1ec1626c7848d9631888debd866004610c09888888610df4565b5f80610ab1846001600160a01b03166007855b604080515f8082526020820190925273ea30c4b8b44078bbf8a6ef5b9f1ec1626c7848d990631888debd908590601a90610d10898960ff16610d0b8a610e85565b610ebe565b6040518563ffffffff1660e01b8152600401610d2f94939291906111f4565b6020604051808303815f875af1158015610d4b573d5f803e3d5ffd5b505050506040513d601f19601f82011682018060405250810190610ab1919061124e565b60408051600280825260608083018452925f929190602083019080368337019050509050835f1c815f81518110610da857610da8611265565b602002602001018181525050825f1c81600181518110610dca57610dca611265565b60209081029190910101529392505050565b5f808315610de8575060015b5f610c7a825f86610cca565b604080516003808252608082019092526060915f9190602082018480368337019050509050845f1c815f81518110610e2e57610e2e611265565b602002602001018181525050835f1c81600181518110610e5057610e50611265565b602002602001018181525050825f1c81600281518110610e7257610e72611265565b6020908102919091010152949350505050565b5f808260030b1215610eb4576040516311ead17f60e31b8152600383900b600482015260240160405180910390fd5b5063ffffffff1690565b604080516003808252608082019092526060915f919060208201848036833701905050905084815f81518110610ef657610ef6611265565b6020026020010181815250508381600181518110610f1657610f16611265565b6020026020010181815250508281600281518110610e7257610e72611265565b80356001600160401b0381168114610f4c575f80fd5b919050565b5f60208284031215610f61575f80fd5b610a5182610f36565b5f81518084528060208401602086015e5f602082860101526020601f19601f83011685010191505092915050565b602081525f610a516020830184610f6a565b80356001600160a01b0381168114610f4c575f80fd5b5f60208284031215610fd0575f80fd5b610a5182610faa565b5f8083601f840112610fe9575f80fd5b5081356001600160401b03811115610fff575f80fd5b602083019150836020828501011115611016575f80fd5b9250929050565b5f805f805f805f805f805f806101208d8f031215611039575f80fd5b8c359b5061104960208e01610f36565b9a506001600160401b0360408e01351115611062575f80fd5b6110728e60408f01358f01610fd9565b909a50985060608d0135975061108a60808e01610f36565b96506001600160401b0360a08e013511156110a3575f80fd5b6110b38e60a08f01358f01610fd9565b909650945060c08d013593506110cb60e08e01610faa565b92506001600160401b036101008e013511156110e5575f80fd5b6110f68e6101008f01358f01610fd9565b81935080925050509295989b509295989b509295989b565b5f6020828403121561111e575f80fd5b5035919050565b600181811c9082168061113957607f821691505b60208210810361115757634e487b7160e01b5f52602260045260245ffd5b50919050565b634e487b7160e01b5f52601160045260245ffd5b5f600182016111825761118261115d565b5060010190565b818103818111156109cc576109cc61115d565b838152826020820152606060408201525f610c7a6060830184610f6a565b5f815180845260208085019450602084015f5b838110156111e9578151875295820195908201906001016111cd565b509495945050505050565b60ff851681525f6020851061121757634e487b7160e01b5f52602160045260245ffd5b8460208301526080604083015261123160808301856111ba565b828103606084015261124381856111ba565b979650505050505050565b5f6020828403121561125e575f80fd5b5051919050565b634e487b7160e01b5f52603260045260245ffdfea26469706673582212204323ecd5667e48ff1ef6103e6034cf1cb7109daf35623270eb77453c4b3b906f64736f6c63430008190033",
  "linkReferences": {},
  "deployedLinkReferences": {}
}